{
  "contractName": "SupplyChain",
  "abi": [
    {
      "inputs": [],
      "stateMutability": "nonpayable",
      "type": "constructor"
    },
    {
      "inputs": [
        {
          "internalType": "uint256",
          "name": "",
          "type": "uint256"
        }
      ],
      "name": "DIS",
      "outputs": [
        {
          "internalType": "address",
          "name": "address_of_distributor",
          "type": "address"
        },
        {
          "internalType": "uint256",
          "name": "id_of_distributor",
          "type": "uint256"
        },
        {
          "internalType": "string",
          "name": "name_of_distributor",
          "type": "string"
        },
        {
          "internalType": "string",
          "name": "place_of_distributor",
          "type": "string"
        }
      ],
      "stateMutability": "view",
      "type": "function"
    },
    {
      "inputs": [
        {
          "internalType": "uint256",
          "name": "",
          "type": "uint256"
        }
      ],
      "name": "MAN",
      "outputs": [
        {
          "internalType": "address",
          "name": "address_of_manufacturer",
          "type": "address"
        },
        {
          "internalType": "uint256",
          "name": "id_of_manufacturer",
          "type": "uint256"
        },
        {
          "internalType": "string",
          "name": "name_of_manufacturer",
          "type": "string"
        },
        {
          "internalType": "string",
          "name": "place_of_manufacturer",
          "type": "string"
        }
      ],
      "stateMutability": "view",
      "type": "function"
    },
    {
      "inputs": [
        {
          "internalType": "uint256",
          "name": "",
          "type": "uint256"
        }
      ],
      "name": "MedicineStock",
      "outputs": [
        {
          "internalType": "uint256",
          "name": "id",
          "type": "uint256"
        },
        {
          "internalType": "string",
          "name": "name",
          "type": "string"
        },
        {
          "internalType": "string",
          "name": "description",
          "type": "string"
        },
        {
          "internalType": "uint256",
          "name": "RMSid",
          "type": "uint256"
        },
        {
          "internalType": "uint256",
          "name": "MANid",
          "type": "uint256"
        },
        {
          "internalType": "uint256",
          "name": "DISid",
          "type": "uint256"
        },
        {
          "internalType": "uint256",
          "name": "RETid",
          "type": "uint256"
        },
        {
          "internalType": "enum SupplyChain.STAGE",
          "name": "stage",
          "type": "uint8"
        }
      ],
      "stateMutability": "view",
      "type": "function"
    },
    {
      "inputs": [],
      "name": "Owner",
      "outputs": [
        {
          "internalType": "address",
          "name": "",
          "type": "address"
        }
      ],
      "stateMutability": "view",
      "type": "function"
    },
    {
      "inputs": [
        {
          "internalType": "uint256",
          "name": "",
          "type": "uint256"
        }
      ],
      "name": "RET",
      "outputs": [
        {
          "internalType": "address",
          "name": "address_of_retailer",
          "type": "address"
        },
        {
          "internalType": "uint256",
          "name": "id_of_retailer",
          "type": "uint256"
        },
        {
          "internalType": "string",
          "name": "name_of_retailer",
          "type": "string"
        },
        {
          "internalType": "string",
          "name": "place_of_retailer",
          "type": "string"
        }
      ],
      "stateMutability": "view",
      "type": "function"
    },
    {
      "inputs": [
        {
          "internalType": "uint256",
          "name": "",
          "type": "uint256"
        }
      ],
      "name": "RMS",
      "outputs": [
        {
          "internalType": "address",
          "name": "address_of_rawMaterialSupplier",
          "type": "address"
        },
        {
          "internalType": "uint256",
          "name": "id_of_rawMaterialSupplier",
          "type": "uint256"
        },
        {
          "internalType": "string",
          "name": "name_of_rawMaterialSupplier",
          "type": "string"
        },
        {
          "internalType": "string",
          "name": "place_of_rawMaterialSupplier",
          "type": "string"
        }
      ],
      "stateMutability": "view",
      "type": "function"
    },
    {
      "inputs": [],
      "name": "disCount",
      "outputs": [
        {
          "internalType": "uint256",
          "name": "",
          "type": "uint256"
        }
      ],
      "stateMutability": "view",
      "type": "function"
    },
    {
      "inputs": [],
      "name": "manCount",
      "outputs": [
        {
          "internalType": "uint256",
          "name": "",
          "type": "uint256"
        }
      ],
      "stateMutability": "view",
      "type": "function"
    },
    {
      "inputs": [],
      "name": "medicineCount",
      "outputs": [
        {
          "internalType": "uint256",
          "name": "",
          "type": "uint256"
        }
      ],
      "stateMutability": "view",
      "type": "function"
    },
    {
      "inputs": [],
      "name": "retCount",
      "outputs": [
        {
          "internalType": "uint256",
          "name": "",
          "type": "uint256"
        }
      ],
      "stateMutability": "view",
      "type": "function"
    },
    {
      "inputs": [],
      "name": "rmsCount",
      "outputs": [
        {
          "internalType": "uint256",
          "name": "",
          "type": "uint256"
        }
      ],
      "stateMutability": "view",
      "type": "function"
    },
    {
      "inputs": [
        {
          "internalType": "uint256",
          "name": "_medicineID",
          "type": "uint256"
        }
      ],
      "name": "showStage",
      "outputs": [
        {
          "internalType": "string",
          "name": "stage",
          "type": "string"
        }
      ],
      "stateMutability": "view",
      "type": "function"
    },
    {
      "inputs": [
        {
          "internalType": "address",
          "name": "_address",
          "type": "address"
        },
        {
          "internalType": "string",
          "name": "_name",
          "type": "string"
        },
        {
          "internalType": "string",
          "name": "_place",
          "type": "string"
        }
      ],
      "name": "add_RMS_in_blockchain",
      "outputs": [],
      "stateMutability": "nonpayable",
      "type": "function"
    },
    {
      "inputs": [
        {
          "internalType": "address",
          "name": "_address",
          "type": "address"
        },
        {
          "internalType": "string",
          "name": "_name",
          "type": "string"
        },
        {
          "internalType": "string",
          "name": "_place",
          "type": "string"
        }
      ],
      "name": "add_Manufacturer_in_blockchain",
      "outputs": [],
      "stateMutability": "nonpayable",
      "type": "function"
    },
    {
      "inputs": [
        {
          "internalType": "address",
          "name": "_address",
          "type": "address"
        },
        {
          "internalType": "string",
          "name": "_name",
          "type": "string"
        },
        {
          "internalType": "string",
          "name": "_place",
          "type": "string"
        }
      ],
      "name": "add_Distributor_in_blockchain",
      "outputs": [],
      "stateMutability": "nonpayable",
      "type": "function"
    },
    {
      "inputs": [
        {
          "internalType": "address",
          "name": "_address",
          "type": "address"
        },
        {
          "internalType": "string",
          "name": "_name",
          "type": "string"
        },
        {
          "internalType": "string",
          "name": "_place",
          "type": "string"
        }
      ],
      "name": "add_Retailer_in_blockchain",
      "outputs": [],
      "stateMutability": "nonpayable",
      "type": "function"
    },
    {
      "inputs": [
        {
          "internalType": "uint256",
          "name": "_medicineID",
          "type": "uint256"
        }
      ],
      "name": "RMS_to_manufacture_supply",
      "outputs": [],
      "stateMutability": "nonpayable",
      "type": "function"
    },
    {
      "inputs": [
        {
          "internalType": "uint256",
          "name": "_medicineID",
          "type": "uint256"
        }
      ],
      "name": "Manufacturing",
      "outputs": [],
      "stateMutability": "nonpayable",
      "type": "function"
    },
    {
      "inputs": [
        {
          "internalType": "uint256",
          "name": "_medicineID",
          "type": "uint256"
        }
      ],
      "name": "manufacture_to_Distribute",
      "outputs": [],
      "stateMutability": "nonpayable",
      "type": "function"
    },
    {
      "inputs": [
        {
          "internalType": "uint256",
          "name": "_medicineID",
          "type": "uint256"
        }
      ],
      "name": "distributor_to_Retail",
      "outputs": [],
      "stateMutability": "nonpayable",
      "type": "function"
    },
    {
      "inputs": [
        {
          "internalType": "uint256",
          "name": "_medicineID",
          "type": "uint256"
        }
      ],
      "name": "sold",
      "outputs": [],
      "stateMutability": "nonpayable",
      "type": "function"
    },
    {
      "inputs": [
        {
          "internalType": "string",
          "name": "_name",
          "type": "string"
        },
        {
          "internalType": "string",
          "name": "_description",
          "type": "string"
        }
      ],
      "name": "addMedicine",
      "outputs": [],
      "stateMutability": "nonpayable",
      "type": "function"
    }
  ],
  "bytecode": "0x60806040526000600155600060025560006003556000600455600060055534801561002957600080fd5b50336000806101000a81548173ffffffffffffffffffffffffffffffffffffffff021916908373ffffffffffffffffffffffffffffffffffffffff160217905550612613806100796000396000f3fe608060405234801561001057600080fd5b50600436106101425760003560e01c8063a48d335a116100b8578063e46638531161007c578063e46638531461036a578063e7b10cb814610388578063eb1a06b5146103a4578063eef5cb40146103db578063f5a3c3601461040e578063f6d7887a1461042a57610142565b8063a48d335a146102af578063b4a99a4e146102cb578063cc403069146102e9578063e101a2e01461031c578063e1359f621461034c57610142565b8063423c10ac1161010a578063423c10ac146101ea5780634dafd4901461020857806359bf286f146102265780637b855ae4146102595780638f4183cc146102775780639c03facb1461029357610142565b80630d59ce181461014757806313089067146101635780632b0187ac1461017f5780632f9d99ed146101b257806333026bd0146101ce575b600080fd5b610161600480360381019061015c9190611ed7565b610446565b005b61017d60048036038101906101789190611ed7565b610589565b005b61019960048036038101906101949190611f98565b6106cc565b6040516101a99493929190612062565b60405180910390f35b6101cc60048036038101906101c79190611ed7565b61082c565b005b6101e860048036038101906101e39190611f98565b61096f565b005b6101f2610a56565b6040516101ff91906120b5565b60405180910390f35b610210610a5c565b60405161021d91906120b5565b60405180910390f35b610240600480360381019061023b9190611f98565b610a62565b6040516102509493929190612062565b60405180910390f35b610261610bc2565b60405161026e91906120b5565b60405180910390f35b610291600480360381019061028c91906120d0565b610bc8565b005b6102ad60048036038101906102a89190611f98565b610d6e565b005b6102c960048036038101906102c49190611f98565b610e5c565b005b6102d3610f43565b6040516102e09190612148565b60405180910390f35b61030360048036038101906102fe9190611f98565b610f67565b6040516103139493929190612062565b60405180910390f35b61033660048036038101906103319190611f98565b6110c7565b6040516103439190612163565b60405180910390f35b610354611425565b60405161036191906120b5565b60405180910390f35b61037261142b565b60405161037f91906120b5565b60405180910390f35b6103a2600480360381019061039d9190611ed7565b611431565b005b6103be60048036038101906103b99190611f98565b611574565b6040516103d29897969594939291906121fc565b60405180910390f35b6103f560048036038101906103f09190611f98565b6116d9565b6040516104059493929190612062565b60405180910390f35b61042860048036038101906104239190611f98565b611839565b005b610444600480360381019061043f9190611f98565b611920565b005b60008054906101000a900473ffffffffffffffffffffffffffffffffffffffff1673ffffffffffffffffffffffffffffffffffffffff163373ffffffffffffffffffffffffffffffffffffffff161461049e57600080fd5b600360008154809291906104b1906122b7565b919050555060405180608001604052808473ffffffffffffffffffffffffffffffffffffffff16815260200160035481526020018381526020018281525060086000600354815260200190815260200160002060008201518160000160006101000a81548173ffffffffffffffffffffffffffffffffffffffff021916908373ffffffffffffffffffffffffffffffffffffffff16021790555060208201518160010155604082015181600201908161056a919061250b565b506060820151816003019081610580919061250b565b50905050505050565b60008054906101000a900473ffffffffffffffffffffffffffffffffffffffff1673ffffffffffffffffffffffffffffffffffffffff163373ffffffffffffffffffffffffffffffffffffffff16146105e157600080fd5b600260008154809291906105f4906122b7565b919050555060405180608001604052808473ffffffffffffffffffffffffffffffffffffffff16815260200160025481526020018381526020018281525060076000600254815260200190815260200160002060008201518160000160006101000a81548173ffffffffffffffffffffffffffffffffffffffff021916908373ffffffffffffffffffffffffffffffffffffffff1602179055506020820151816001015560408201518160020190816106ad919061250b565b5060608201518160030190816106c3919061250b565b50905050505050565b60096020528060005260406000206000915090508060000160009054906101000a900473ffffffffffffffffffffffffffffffffffffffff169080600101549080600201805461071b9061232e565b80601f01602080910402602001604051908101604052809291908181526020018280546107479061232e565b80156107945780601f1061076957610100808354040283529160200191610794565b820191906000526020600020905b81548152906001019060200180831161077757829003601f168201915b5050505050908060030180546107a99061232e565b80601f01602080910402602001604051908101604052809291908181526020018280546107d59061232e565b80156108225780601f106107f757610100808354040283529160200191610822565b820191906000526020600020905b81548152906001019060200180831161080557829003601f168201915b5050505050905084565b60008054906101000a900473ffffffffffffffffffffffffffffffffffffffff1673ffffffffffffffffffffffffffffffffffffffff163373ffffffffffffffffffffffffffffffffffffffff161461088457600080fd5b60046000815480929190610897906122b7565b919050555060405180608001604052808473ffffffffffffffffffffffffffffffffffffffff16815260200160045481526020018381526020018281525060096000600454815260200190815260200160002060008201518160000160006101000a81548173ffffffffffffffffffffffffffffffffffffffff021916908373ffffffffffffffffffffffffffffffffffffffff160217905550602082015181600101556040820151816002019081610950919061250b565b506060820151816003019081610966919061250b565b50905050505050565b60008111801561098157506001548111155b61098a57600080fd5b600061099533611a07565b9050600081116109a457600080fd5b600260058111156109b8576109b7612185565b5b6006600084815260200190815260200160002060070160009054906101000a900460ff1660058111156109ee576109ed612185565b5b146109f857600080fd5b80600660008481526020019081526020016000206005018190555060036006600084815260200190815260200160002060070160006101000a81548160ff02191690836005811115610a4d57610a4c612185565b5b02179055505050565b60055481565b60015481565b600a6020528060005260406000206000915090508060000160009054906101000a900473ffffffffffffffffffffffffffffffffffffffff1690806001015490806002018054610ab19061232e565b80601f0160208091040260200160405190810160405280929190818152602001828054610add9061232e565b8015610b2a5780601f10610aff57610100808354040283529160200191610b2a565b820191906000526020600020905b815481529060010190602001808311610b0d57829003601f168201915b505050505090806003018054610b3f9061232e565b80601f0160208091040260200160405190810160405280929190818152602001828054610b6b9061232e565b8015610bb85780601f10610b8d57610100808354040283529160200191610bb8565b820191906000526020600020905b815481529060010190602001808311610b9b57829003601f168201915b5050505050905084565b60035481565b60008054906101000a900473ffffffffffffffffffffffffffffffffffffffff1673ffffffffffffffffffffffffffffffffffffffff163373ffffffffffffffffffffffffffffffffffffffff1614610c2057600080fd5b6000600254118015610c3457506000600354115b8015610c4257506000600454115b8015610c5057506000600554115b610c5957600080fd5b60016000815480929190610c6c906122b7565b919050555060405180610100016040528060015481526020018381526020018281526020016000815260200160008152602001600081526020016000815260200160006005811115610cc157610cc0612185565b5b815250600660006001548152602001908152602001600020600082015181600001556020820151816001019081610cf8919061250b565b506040820151816002019081610d0e919061250b565b50606082015181600301556080820151816004015560a0820151816005015560c0820151816006015560e08201518160070160006101000a81548160ff02191690836005811115610d6257610d61612185565b5b02179055509050505050565b600081118015610d8057506001548111155b610d8957600080fd5b6000610d9433611acd565b905060008111610da357600080fd5b60066000838152602001908152602001600020600601548114610dc557600080fd5b60046005811115610dd957610dd8612185565b5b6006600084815260200190815260200160002060070160009054906101000a900460ff166005811115610e0f57610e0e612185565b5b14610e1957600080fd5b60056006600084815260200190815260200160002060070160006101000a81548160ff02191690836005811115610e5357610e52612185565b5b02179055505050565b600081118015610e6e57506001548111155b610e7757600080fd5b6000610e8233611b93565b905060008111610e9157600080fd5b60016005811115610ea557610ea4612185565b5b6006600084815260200190815260200160002060070160009054906101000a900460ff166005811115610edb57610eda612185565b5b14610ee557600080fd5b80600660008481526020019081526020016000206004018190555060026006600084815260200190815260200160002060070160006101000a81548160ff02191690836005811115610f3a57610f39612185565b5b02179055505050565b60008054906101000a900473ffffffffffffffffffffffffffffffffffffffff1681565b60086020528060005260406000206000915090508060000160009054906101000a900473ffffffffffffffffffffffffffffffffffffffff1690806001015490806002018054610fb69061232e565b80601f0160208091040260200160405190810160405280929190818152602001828054610fe29061232e565b801561102f5780601f106110045761010080835404028352916020019161102f565b820191906000526020600020905b81548152906001019060200180831161101257829003601f168201915b5050505050908060030180546110449061232e565b80601f01602080910402602001604051908101604052809291908181526020018280546110709061232e565b80156110bd5780601f10611092576101008083540402835291602001916110bd565b820191906000526020600020905b8154815290600101906020018083116110a057829003601f168201915b5050505050905084565b60606000600154116110d857600080fd5b600060058111156110ec576110eb612185565b5b6006600084815260200190815260200160002060070160009054906101000a900460ff16600581111561112257611121612185565b5b03611164576040518060400160405280601081526020017f4d65646963696e65204f726465726564000000000000000000000000000000008152509050611420565b6001600581111561117857611177612185565b5b6006600084815260200190815260200160002060070160009054906101000a900460ff1660058111156111ae576111ad612185565b5b036111f0576040518060400160405280601981526020017f526177204d6174657269616c20537570706c7920537461676500000000000000815250905061141f565b6002600581111561120457611203612185565b5b6006600084815260200190815260200160002060070160009054906101000a900460ff16600581111561123a57611239612185565b5b0361127c576040518060400160405280601381526020017f4d616e75666163747572696e6720537461676500000000000000000000000000815250905061141e565b600360058111156112905761128f612185565b5b6006600084815260200190815260200160002060070160009054906101000a900460ff1660058111156112c6576112c5612185565b5b03611308576040518060400160405280601281526020017f446973747269627574696f6e2053746167650000000000000000000000000000815250905061141d565b6004600581111561131c5761131b612185565b5b6006600084815260200190815260200160002060070160009054906101000a900460ff16600581111561135257611351612185565b5b03611394576040518060400160405280600c81526020017f52657461696c2053746167650000000000000000000000000000000000000000815250905061141c565b6005808111156113a7576113a6612185565b5b6006600084815260200190815260200160002060070160009054906101000a900460ff1660058111156113dd576113dc612185565b5b0361141b576040518060400160405280600d81526020017f4d65646963696e6520536f6c640000000000000000000000000000000000000081525090505b5b5b5b5b5b919050565b60045481565b60025481565b60008054906101000a900473ffffffffffffffffffffffffffffffffffffffff1673ffffffffffffffffffffffffffffffffffffffff163373ffffffffffffffffffffffffffffffffffffffff161461148957600080fd5b6005600081548092919061149c906122b7565b919050555060405180608001604052808473ffffffffffffffffffffffffffffffffffffffff168152602001600554815260200183815260200182815250600a6000600554815260200190815260200160002060008201518160000160006101000a81548173ffffffffffffffffffffffffffffffffffffffff021916908373ffffffffffffffffffffffffffffffffffffffff160217905550602082015181600101556040820151816002019081611555919061250b565b50606082015181600301908161156b919061250b565b50905050505050565b600660205280600052604060002060009150905080600001549080600101805461159d9061232e565b80601f01602080910402602001604051908101604052809291908181526020018280546115c99061232e565b80156116165780601f106115eb57610100808354040283529160200191611616565b820191906000526020600020905b8154815290600101906020018083116115f957829003601f168201915b50505050509080600201805461162b9061232e565b80601f01602080910402602001604051908101604052809291908181526020018280546116579061232e565b80156116a45780601f10611679576101008083540402835291602001916116a4565b820191906000526020600020905b81548152906001019060200180831161168757829003601f168201915b5050505050908060030154908060040154908060050154908060060154908060070160009054906101000a900460ff16905088565b60076020528060005260406000206000915090508060000160009054906101000a900473ffffffffffffffffffffffffffffffffffffffff16908060010154908060020180546117289061232e565b80601f01602080910402602001604051908101604052809291908181526020018280546117549061232e565b80156117a15780601f10611776576101008083540402835291602001916117a1565b820191906000526020600020905b81548152906001019060200180831161178457829003601f168201915b5050505050908060030180546117b69061232e565b80601f01602080910402602001604051908101604052809291908181526020018280546117e29061232e565b801561182f5780601f106118045761010080835404028352916020019161182f565b820191906000526020600020905b81548152906001019060200180831161181257829003601f168201915b5050505050905084565b60008111801561184b57506001548111155b61185457600080fd5b600061185f33611c59565b90506000811161186e57600080fd5b6000600581111561188257611881612185565b5b6006600084815260200190815260200160002060070160009054906101000a900460ff1660058111156118b8576118b7612185565b5b146118c257600080fd5b80600660008481526020019081526020016000206003018190555060016006600084815260200190815260200160002060070160006101000a81548160ff0219169083600581111561191757611916612185565b5b02179055505050565b60008111801561193257506001548111155b61193b57600080fd5b600061194633611acd565b90506000811161195557600080fd5b6003600581111561196957611968612185565b5b6006600084815260200190815260200160002060070160009054906101000a900460ff16600581111561199f5761199e612185565b5b146119a957600080fd5b80600660008481526020019081526020016000206006018190555060046006600084815260200190815260200160002060070160006101000a81548160ff021916908360058111156119fe576119fd612185565b5b02179055505050565b60008060045411611a1757600080fd5b6000600190505b6004548111611ac2578273ffffffffffffffffffffffffffffffffffffffff166009600083815260200190815260200160002060000160009054906101000a900473ffffffffffffffffffffffffffffffffffffffff1673ffffffffffffffffffffffffffffffffffffffff1603611aaf576009600082815260200190815260200160002060010154915050611ac8565b8080611aba906122b7565b915050611a1e565b50600090505b919050565b60008060055411611add57600080fd5b6000600190505b6005548111611b88578273ffffffffffffffffffffffffffffffffffffffff16600a600083815260200190815260200160002060000160009054906101000a900473ffffffffffffffffffffffffffffffffffffffff1673ffffffffffffffffffffffffffffffffffffffff1603611b7557600a600082815260200190815260200160002060010154915050611b8e565b8080611b80906122b7565b915050611ae4565b50600090505b919050565b60008060035411611ba357600080fd5b6000600190505b6003548111611c4e578273ffffffffffffffffffffffffffffffffffffffff166008600083815260200190815260200160002060000160009054906101000a900473ffffffffffffffffffffffffffffffffffffffff1673ffffffffffffffffffffffffffffffffffffffff1603611c3b576008600082815260200190815260200160002060010154915050611c54565b8080611c46906122b7565b915050611baa565b50600090505b919050565b60008060025411611c6957600080fd5b6000600190505b6002548111611d14578273ffffffffffffffffffffffffffffffffffffffff166007600083815260200190815260200160002060000160009054906101000a900473ffffffffffffffffffffffffffffffffffffffff1673ffffffffffffffffffffffffffffffffffffffff1603611d01576007600082815260200190815260200160002060010154915050611d1a565b8080611d0c906122b7565b915050611c70565b50600090505b919050565b6000604051905090565b600080fd5b600080fd5b600073ffffffffffffffffffffffffffffffffffffffff82169050919050565b6000611d5e82611d33565b9050919050565b611d6e81611d53565b8114611d7957600080fd5b50565b600081359050611d8b81611d65565b92915050565b600080fd5b600080fd5b6000601f19601f8301169050919050565b7f4e487b7100000000000000000000000000000000000000000000000000000000600052604160045260246000fd5b611de482611d9b565b810181811067ffffffffffffffff82111715611e0357611e02611dac565b5b80604052505050565b6000611e16611d1f565b9050611e228282611ddb565b919050565b600067ffffffffffffffff821115611e4257611e41611dac565b5b611e4b82611d9b565b9050602081019050919050565b82818337600083830152505050565b6000611e7a611e7584611e27565b611e0c565b905082815260208101848484011115611e9657611e95611d96565b5b611ea1848285611e58565b509392505050565b600082601f830112611ebe57611ebd611d91565b5b8135611ece848260208601611e67565b91505092915050565b600080600060608486031215611ef057611eef611d29565b5b6000611efe86828701611d7c565b935050602084013567ffffffffffffffff811115611f1f57611f1e611d2e565b5b611f2b86828701611ea9565b925050604084013567ffffffffffffffff811115611f4c57611f4b611d2e565b5b611f5886828701611ea9565b9150509250925092565b6000819050919050565b611f7581611f62565b8114611f8057600080fd5b50565b600081359050611f9281611f6c565b92915050565b600060208284031215611fae57611fad611d29565b5b6000611fbc84828501611f83565b91505092915050565b611fce81611d53565b82525050565b611fdd81611f62565b82525050565b600081519050919050565b600082825260208201905092915050565b60005b8381101561201d578082015181840152602081019050612002565b60008484015250505050565b600061203482611fe3565b61203e8185611fee565b935061204e818560208601611fff565b61205781611d9b565b840191505092915050565b60006080820190506120776000830187611fc5565b6120846020830186611fd4565b81810360408301526120968185612029565b905081810360608301526120aa8184612029565b905095945050505050565b60006020820190506120ca6000830184611fd4565b92915050565b600080604083850312156120e7576120e6611d29565b5b600083013567ffffffffffffffff81111561210557612104611d2e565b5b61211185828601611ea9565b925050602083013567ffffffffffffffff81111561213257612131611d2e565b5b61213e85828601611ea9565b9150509250929050565b600060208201905061215d6000830184611fc5565b92915050565b6000602082019050818103600083015261217d8184612029565b905092915050565b7f4e487b7100000000000000000000000000000000000000000000000000000000600052602160045260246000fd5b600681106121c5576121c4612185565b5b50565b60008190506121d6826121b4565b919050565b60006121e6826121c8565b9050919050565b6121f6816121db565b82525050565b600061010082019050612212600083018b611fd4565b8181036020830152612224818a612029565b905081810360408301526122388189612029565b90506122476060830188611fd4565b6122546080830187611fd4565b61226160a0830186611fd4565b61226e60c0830185611fd4565b61227b60e08301846121ed565b9998505050505050505050565b7f4e487b7100000000000000000000000000000000000000000000000000000000600052601160045260246000fd5b60006122c282611f62565b91507fffffffffffffffffffffffffffffffffffffffffffffffffffffffffffffffff82036122f4576122f3612288565b5b600182019050919050565b7f4e487b7100000000000000000000000000000000000000000000000000000000600052602260045260246000fd5b6000600282049050600182168061234657607f821691505b602082108103612359576123586122ff565b5b50919050565b60008190508160005260206000209050919050565b60006020601f8301049050919050565b600082821b905092915050565b6000600883026123c17fffffffffffffffffffffffffffffffffffffffffffffffffffffffffffffffff82612384565b6123cb8683612384565b95508019841693508086168417925050509392505050565b6000819050919050565b60006124086124036123fe84611f62565b6123e3565b611f62565b9050919050565b6000819050919050565b612422836123ed565b61243661242e8261240f565b848454612391565b825550505050565b600090565b61244b61243e565b612456818484612419565b505050565b5b8181101561247a5761246f600082612443565b60018101905061245c565b5050565b601f8211156124bf576124908161235f565b61249984612374565b810160208510156124a8578190505b6124bc6124b485612374565b83018261245b565b50505b505050565b600082821c905092915050565b60006124e2600019846008026124c4565b1980831691505092915050565b60006124fb83836124d1565b9150826002028217905092915050565b61251482611fe3565b67ffffffffffffffff81111561252d5761252c611dac565b5b612537825461232e565b61254282828561247e565b600060209050601f8311600181146125755760008415612563578287015190505b61256d85826124ef565b8655506125d5565b601f1984166125838661235f565b60005b828110156125ab57848901518255600182019150602085019450602081019050612586565b868310156125c857848901516125c4601f8916826124d1565b8355505b6001600288020188555050505b50505050505056fea2646970667358221220b6acedf5b60da1e112a629af291d2d409ad0543d2e4cfead58d086f6e4d96d3764736f6c63430008130033",
  "immutableReferences": {},
  "source": "// SPDX-License-Identifier: MIT\r\npragma solidity >=0.4.22 <0.9.0;\r\n\r\ncontract SupplyChain {\r\n\r\n//--------------------------------------------------------------------------------------------------------------------------------------------------------------------------------------------------\r\n    address public Owner;\r\n\r\n    //Medicine count\r\n    uint256 public medicineCount = 0;\r\n    //Raw material supplier count\r\n    uint256 public rmsCount = 0;\r\n    //Manufacturer count\r\n    uint256 public manCount = 0;\r\n    //distributor count\r\n    uint256 public disCount = 0;\r\n    //retailer count\r\n    uint256 public retCount = 0;\r\n\r\n//-----------------------------------------------------------------------------------------------------------------------------------------------------------------------------------------------------\r\n\r\n    constructor(){\r\n        Owner = msg.sender;\r\n    }\r\n\r\n    modifier onlyByOwner() {\r\n        require(msg.sender == Owner);\r\n        _;\r\n    }\r\n\r\n    //stages of a medicine in pharma supply chain\r\n    enum STAGE {\r\n        Init,\r\n        RawMaterialSupply,\r\n        Manufacture,\r\n        Distribution,\r\n        Retail,\r\n        sold\r\n    }\r\n    //using this we are going to track every single medicine the owner orders\r\n\r\n\r\n    //To store information about the medicine\r\n    struct medicine {\r\n        uint256 id; //unique medicine id\r\n        string name; //name of the medicine\r\n        string description; //about medicine\r\n        uint256 RMSid; //id of the Raw Material supplier for this particular medicine\r\n        uint256 MANid; //id of the Manufacturer for this particular medicine\r\n        uint256 DISid; //id of the distributor for this particular medicine\r\n        uint256 RETid; //id of the retailer for this particular medicine\r\n        STAGE stage; //current medicine stage\r\n    }\r\n\r\n\r\n    mapping(uint256 => medicine) public MedicineStock;\r\n\r\n   \r\n   function showStage(uint256 _medicineID) public view returns (string memory stage) {\r\n    require(medicineCount > 0);\r\n    \r\n    if (MedicineStock[_medicineID].stage == STAGE.Init)\r\n        stage = \"Medicine Ordered\";\r\n    else if (MedicineStock[_medicineID].stage == STAGE.RawMaterialSupply)\r\n        stage = \"Raw Material Supply Stage\";\r\n    else if (MedicineStock[_medicineID].stage == STAGE.Manufacture)\r\n        stage = \"Manufacturing Stage\";\r\n    else if (MedicineStock[_medicineID].stage == STAGE.Distribution)\r\n        stage = \"Distribution Stage\";\r\n    else if (MedicineStock[_medicineID].stage == STAGE.Retail)\r\n        stage = \"Retail Stage\";\r\n    else if (MedicineStock[_medicineID].stage == STAGE.sold)\r\n        stage = \"Medicine Sold\";\r\n\r\n    return stage;\r\n}\r\n//The function first checks if medicineCtr is greater than zero by calling the require function. This is a way to check a condition and revert the transaction if it is not met.\r\n\r\n\r\n//----------------------------------------------------------------------------------------------------------------------------------------------------------------------------------------\r\n\r\n   \r\n    struct info_rawMaterialSupplier {\r\n        address address_of_rawMaterialSupplier;\r\n        uint256 id_of_rawMaterialSupplier;\r\n        string name_of_rawMaterialSupplier;\r\n        string place_of_rawMaterialSupplier; \r\n    }\r\n\r\n    \r\n    struct info_manufacturer {\r\n        address address_of_manufacturer;\r\n        uint256 id_of_manufacturer;\r\n        string name_of_manufacturer; \r\n        string place_of_manufacturer; \r\n    }\r\n\r\n    \r\n    struct info_distributor {\r\n        address address_of_distributor;\r\n        uint256 id_of_distributor;\r\n        string name_of_distributor; \r\n        string place_of_distributor; \r\n    }\r\n\r\n\r\n    struct info_retailer {\r\n        address address_of_retailer;\r\n        uint256 id_of_retailer; \r\n        string name_of_retailer; \r\n        string place_of_retailer; \r\n    }\r\n\r\n\r\n//-------------------------------------------------------------------------------------------------------------------------------------------------\r\n    //To store all the raw material suppliers on the blockchain\r\n    mapping(uint256 => info_rawMaterialSupplier) public RMS;\r\n\r\n    //To store all the manufacturers on the blockchain\r\n    mapping(uint256 => info_manufacturer) public MAN;\r\n\r\n      //To store all the distributors on the blockchain\r\n    mapping(uint256 => info_distributor) public DIS;\r\n\r\n    //To store all the retailers on the blockchain\r\n    mapping(uint256 => info_retailer) public RET;\r\n//-----------------------------------------------------------------------------------------------------------------------------------------------------------------------------------------------------\r\n\r\n    function add_RMS_in_blockchain(address _address,string memory _name, string memory _place) public onlyByOwner() {\r\n        rmsCount++;\r\n        RMS[rmsCount] = info_rawMaterialSupplier(_address, rmsCount, _name, _place);\r\n    }\r\n\r\n\r\n    function add_Manufacturer_in_blockchain(address _address,string memory _name,string memory _place) public onlyByOwner() {\r\n        manCount++;\r\n        MAN[manCount] = info_manufacturer(_address, manCount, _name, _place);\r\n    }\r\n\r\n  \r\n    function add_Distributor_in_blockchain(address _address,string memory _name,string memory _place) public onlyByOwner() {\r\n        disCount++;\r\n        DIS[disCount] = info_distributor(_address, disCount, _name, _place);\r\n    }\r\n\r\n    function add_Retailer_in_blockchain(address _address,string memory _name,string memory _place) public onlyByOwner() {\r\n        retCount++;\r\n        RET[retCount] = info_retailer(_address, retCount, _name, _place);\r\n    }\r\n\r\n//----------------------------------------------------------------------------------------------------------------------------------------------------------------------------------------------------------\r\n\r\n    //To supply raw materials from RMS supplier to the manufacturer\r\n    function RMS_to_manufacture_supply(uint256 _medicineID) public {\r\n        require(_medicineID > 0 && _medicineID <= medicineCount);\r\n        uint256 _id = check_RMS_is_available(msg.sender);\r\n        require(_id > 0);\r\n        require(MedicineStock[_medicineID].stage == STAGE.Init);\r\n        MedicineStock[_medicineID].RMSid = _id;\r\n        MedicineStock[_medicineID].stage = STAGE.RawMaterialSupply;\r\n    }\r\n\r\n    \r\n    function check_RMS_is_available(address _address) private view returns (uint256) {\r\n        require(rmsCount > 0);\r\n        for (uint256 i = 1; i <= rmsCount; i++) {\r\n            if (RMS[i].address_of_rawMaterialSupplier == _address) return RMS[i].id_of_rawMaterialSupplier;\r\n        }\r\n        return 0;\r\n    }\r\n\r\n    //To manufacture medicine\r\n    function Manufacturing(uint256 _medicineID) public {\r\n        require(_medicineID > 0 && _medicineID <= medicineCount);\r\n        uint256 _id = check_MAN_is_available(msg.sender);\r\n        require(_id > 0);\r\n        require(MedicineStock[_medicineID].stage == STAGE.RawMaterialSupply);\r\n        MedicineStock[_medicineID].MANid = _id;\r\n        MedicineStock[_medicineID].stage = STAGE.Manufacture;\r\n    }\r\n\r\n    function check_MAN_is_available(address _address) private view returns (uint256) {\r\n        require(manCount > 0);\r\n        for (uint256 i = 1; i <= manCount; i++) {\r\n            if (MAN[i].address_of_manufacturer == _address) return MAN[i].id_of_manufacturer;\r\n        }\r\n        return 0;\r\n    }\r\n\r\n    //To supply medicines from Manufacturer to distributor\r\n    function manufacture_to_Distribute(uint256 _medicineID) public {\r\n        require(_medicineID > 0 && _medicineID <= medicineCount);\r\n        uint256 _id = check_distributor_is_available(msg.sender);\r\n        require(_id > 0);\r\n        require(MedicineStock[_medicineID].stage == STAGE.Manufacture);\r\n        MedicineStock[_medicineID].DISid = _id;\r\n        MedicineStock[_medicineID].stage = STAGE.Distribution;\r\n    }\r\n\r\n    \r\n    function check_distributor_is_available(address _address) private view returns (uint256) {\r\n        require(disCount > 0);\r\n        for (uint256 i = 1; i <= disCount; i++) {\r\n            if (DIS[i].address_of_distributor == _address) return DIS[i].id_of_distributor;\r\n        }\r\n        return 0;\r\n    }\r\n\r\n    //To supply medicines from distributor to retailer\r\n    function distributor_to_Retail(uint256 _medicineID) public {\r\n        require(_medicineID > 0 && _medicineID <= medicineCount);\r\n        uint256 _id = check_retailer_is_available(msg.sender);\r\n        require(_id > 0);\r\n        require(MedicineStock[_medicineID].stage == STAGE.Distribution);\r\n        MedicineStock[_medicineID].RETid = _id;\r\n        MedicineStock[_medicineID].stage = STAGE.Retail;\r\n    }\r\n\r\n   \r\n    function check_retailer_is_available(address _address) private view returns (uint256) {\r\n        require(retCount > 0);\r\n        for (uint256 i = 1; i <= retCount; i++) {\r\n            if (RET[i].address_of_retailer == _address) return RET[i].id_of_retailer;\r\n        }\r\n        return 0;\r\n    }\r\n\r\n    //To sell medicines from retailer to consumer\r\n    function sold(uint256 _medicineID) public {\r\n        require(_medicineID > 0 && _medicineID <= medicineCount);\r\n        uint256 _id = check_retailer_is_available(msg.sender);\r\n        require(_id > 0);\r\n        require(_id == MedicineStock[_medicineID].RETid);\r\n        require(MedicineStock[_medicineID].stage == STAGE.Retail);\r\n        MedicineStock[_medicineID].stage = STAGE.sold;\r\n    }\r\n\r\n\r\n    function addMedicine(string memory _name, string memory _description) public onlyByOwner()\r\n    {\r\n        require((rmsCount > 0) && (manCount > 0) && (disCount > 0) && (retCount > 0));\r\n        medicineCount++;\r\n        MedicineStock[medicineCount] = medicine(\r\n            medicineCount,\r\n            _name,\r\n            _description,\r\n            0,\r\n            0,\r\n            0,\r\n            0,\r\n            STAGE.Init\r\n        );\r\n    }\r\n}",
  "sourcePath": "D:\\Impetus\\INCProject_web_3\\contracts\\SupplyChain.sol",
  "compiler": {
    "name": "solc",
    "version": "0.8.19+commit.7dd6d404.Emscripten.clang"
  },
  "schemaVersion": "3.4.13",
  "updatedAt": "2023-04-18T03:33:51.413Z",
  "devdoc": {
    "kind": "dev",
    "methods": {},
    "version": 1
  },
  "userdoc": {
    "kind": "user",
    "methods": {},
    "version": 1
  }
}